:020000040800F2
:10000000A00D002079020008810200088302000888
:10001000850200088702000889020008000000002D
:100020000000000000000000000000008B0200083B
:100030008D020008000000008F02000891020008F5
:10004000930200089302000893020008930200083C
:10005000930200089302000871060008930200084A
:10006000930200089302000893020008930200081C
:10007000930200089302000893020008930200080C
:1000800093020008930200089302000893020008FC
:1000900093020008930200089302000893020008EC
:1000A00093020008930200089302000893020008DC
:1000B000930200080D1C0008930200089302000838
:1000C00093020008930200089302000893020008BC
:1000D00093020008451D00089302000893020008DF
:1000E000930200089302000893020008930200089C
:1000F000930200089302000893020008930200088C
:10010000930200089302000893020008930200087B
:10011000930200089302000893020008930200086B
:10012000930200089302000893020008930200085B
:10013000930200089302000893020008930200084B
:10014000930200089302000893020008930200083B
:10015000930200089302000893020008930200082B
:10016000930200089302000893020008930200081B
:10017000930200089302000893020008930200080B
:10018000930200089302000800F002F800F065F8FE
:100190000AA090E8000C82448344AAF10107DA45E2
:1001A00001D100F05AF8AFF2090EBAE80F0013F0CF
:1001B000010F18BFFB1A43F00103184790550000C8
:1001C000B055000010F8013B0A4413F0030408BFC7
:1001D00010F8014B1D1108BF10F8015B641E05D01B
:1001E00010F8016B641E01F8016BF9D1002D15D0D8
:1001F00010F8014B03F00C030C2BA1EB04040ABF15
:1002000010F8013BA4EB8314A4EB032405F10103D4
:1002100014F8016B5B1E01F8016BF9D5914238BFF0
:1002200010F8013BD1D3704700230024002500269D
:10023000103A28BF78C1FBD8520728BF30C148BF49
:100240000B607047642900F07380002070471FB571
:1002500002F022FB1FBD10B510BD00F0BAF9114627
:10026000FFF7F5FF02F0EEF800F0D8F903B4FFF75E
:10027000F2FF03BC00F0DCF9094880470948004759
:10028000FEE7FEE7FEE7FEE7FEE7FEE7FEE7FEE746
:10029000FEE7FEE704480549054A064B70470000A3
:1002A000251A000889010008A0070020A00D0020E1
:1002B000A0090020A00900200FB41CB5074B06AA16
:1002C0007B4469460090059800F06BF90020694670
:1002D00000F07AF91CBC5DF814FB00000503000077
:1002E00070B5044685690068C10601D5302600E076
:1002F0002026C00707D070BDD4E9012130469047C1
:10030000206A401C20626D1EF6D570BD70B5044693
:1003100085690078C00707D170BDD4E9012120208C
:100320009047206A401C20626D1EF6D570BD00000B
:100330002DE9F0410646002410687529314616A5BE
:1003400010D0AFF30080002802DA404213A507E086
:1003500031688A0701D512A502E0490704D511A525
:10036000012401E0AFF3008000210A2206F12407F6
:1003700009E0B0FBF2FCB0FBF2F302FB1C003030F2
:1003800078541846491C0028F3D123462A463046A3
:10039000BDE8F04100F0A7B8000000002D0000000B
:1003A0002B000000200000002DE9F05F8946044684
:1003B0004FF0000ADFF824B1FB44C0F820A020462B
:1003C000E168884700287DD0252806D0D4E901219E
:1003D0009047206A401C2062F1E700255F462046D6
:1003E000E16888472028064607DB312E05D2B81978
:1003F00010F8200C08B10543F1E7A80701D525F056
:100400000405C4F81CA00027C4F818A02A2E09D09F
:10041000304601F0D3FC38B304EB8708303EC8F80F
:10042000186019E059F8041B204604EB870291611B
:10043000E1688847012F064618D1E069002820DAD4
:1004400025F020051DE0D8F8180000EB800006EB31
:1004500040003038C8F818002046E1688847064652
:1004600001F0ACFC0028EED1012F0AD02E2E08D1CD
:100470002046E16888477F1C0646022F45F020058C
:10048000C4DBA069002803DA404245F00105A06101
:10049000E80701D025F01005A6B1A6F14100192802
:1004A00002D8203645F400654A463146204625608C
:1004B0004D46FFF7C7FE60B1012807D0ED1D25F0BE
:1004C000070000E007E000F1080978E705F10409FA
:1004D00075E730467AE7206ABDE8F09F7C5300005C
:1004E0007047704770472DE9F0470D469946924690
:1004F000044600F124080168880604D5E06921F06B
:100500001001216000E00120A84201DD471B00E04E
:100510000027A1697A1902EB0900081AA061207866
:10052000C00602D42046FFF7DBFE002608E0D4E92F
:1005300001211AF806009047206A401C761C2062B0
:100540004E45F4DB2078C0060AD52046FFF7C8FEEA
:1005500006E0D4E9012130209047206A401C206247
:10056000381EA7F10107F4DC07E0D4E9012118F8EF
:1005700005009047206A401C2062281EA5F1010555
:10058000F3DC2046FFF7C2FE2078000602D50220E9
:10059000BDE8F0870120FBE701694A1C0261087889
:1005A000704700B58FB0CDE90131002105910549B3
:1005B0007944CDE9031011466846FFF7F5FE0FB008
:1005C00000BD0000E5FFFFFF0A6802F8010B0A60AA
:1005D0007047754600F028F8AE4605006946534658
:1005E00020F00700854618B020B5FFF753FEBDE8A0
:1005F00020404FF000064FF000074FF000084FF08A
:10060000000B21F00701AC46ACE8C009ACE8C0091A
:10061000ACE8C009ACE8C0098D4670470446AFF3AA
:1006200000802046FFF722FE004870473C0700206C
:1006300001491820ABBEFEE726000200704700000B
:1006400030B502464FF6FF7009E0C4B2157884EA6F
:100650000503521C054C34F8134084EA10200C00AA
:10066000A1F10105A9B2F0D130BD00005854000835
:1006700010B50120084908600A2001F0ABFC0748CA
:10068000006900F0010030B100BF0448406980F00B
:1006900080000249486110BD143C01400000024046
:1006A0001548006840F002001349086013480068CC
:1006B00020F04040114908600846006840F0804042
:1006C0000860081D006820F40040091D0860081D2E
:1006D000006820F04040091D08600846006840F4AA
:1006E0008030086005481430006820F40040034959
:1006F00014310860704700003038024000040240A6
:1007000010B5002404E00648005D06490855641C45
:10071000182CF8D30449034800F088F810BD0000F5
:10072000705600080C0700202407002010B5002494
:1007300004E00648005D06490855641C182CF8D3EF
:100740000449034800F072F810BD0000B8560008D4
:100750000C0700202407002010B5002404E0064800
:10076000005D06490855641C182CF8D30449034859
:1007700000F05CF810BD0000885600080C0700204F
:100780002407002010B5002404E00648005D064957
:100790000855641C182CF8D30449034800F046F8A7
:1007A00010BD0000D05600080C07002024070020D0
:1007B000024600210AB900207047002104E00448E5
:1007C000405C5054481CC1B21829F8DB1820F3E7EC
:1007D0002407002010B5002404E00648005D064907
:1007E0000855641C182CF8D30449034800F01EF87F
:1007F00010BD0000585600080C07002024070020F8
:1008000010B5002404E00648005D06490855641C44
:10081000182CF8D30449034800F008F810BD000074
:10082000A05600080C070020240700202DE9F04105
:1008300004460D4601271221201DFFF701FF064641
:10084000E68218222146662000F035F8052001F0E6
:10085000C1FB18222946662000F00BF8EE8A12210F
:10086000281DFFF7EDFEB04200D000273846BDE856
:10087000F0812DE9F04106460C46174600F0BCF920
:10088000012101EB4601C8B200F074F900F0F6F95D
:10089000002505E0002000F025F96055681CC5B270
:1008A000172DF7DB012000F01DF9E07500F0C0F90D
:1008B0000020BDE8F0812DE9F04105460E461746BF
:1008C00000F09AF96906080E00F054F900F0D6F924
:1008D000002406E0305D00F04DF900F0CFF9601C17
:1008E000C4B2182CF6DB00F0A3F90020BDE8F081BB
:1008F0001548006840F0020013490860134800687A
:1009000020F04040114908600846006840F08040EF
:100910000860081D006820F40040091D0860081DDB
:10092000006820F04040091D08600846006840F05B
:100930000040086005481430006820F40040034976
:100940001431086070470000303802400004024053
:1009500010B54FF480701949088018481A3800689B
:1009600020F4402015491A3908600846006840F410
:100970008020086048151149891E0880022001F076
:1009800045FB4FF400700D490880032001F03EFB49
:100990004FF480700949891E0880042001F036FB5D
:1009A0004FF4807005490880022001F02FFB4FF4BE
:1009B00000700249891E088010BD00001A04024020
:1009C0002A48006840F0020028490860284800686A
:1009D00020F44030264908600846006840F4803022
:1009E0000860081D006820F48070091D0860204818
:1009F0000C30006840F480301D490C310860081F3D
:100A0000006820F44030091F08600846006840F480
:100A1000003008601648006820F44020144908603F
:100A20000846006840F480200860081D006820F433
:100A30000070091D08600E480C30006840F48020EA
:100A40000B490C310860081F006820F44020091F82
:100A500008600846006840F40020086088150449D2
:100A6000183108804000088070470000303802408C
:100A70000004024010B54FF48070194908801848EE
:100A80001A38006820F4402015491A3908600846D1
:100A9000006840F48020086048151149891E0880CC
:100AA000022001F0B3FA4FF400700D49891E08804E
:100AB000032001F0ABFA4FF480700949891E0880C9
:100AC000042001F0A3FA4FF4807005490880022049
:100AD00001F09CFA4FF400700149891E088010BD96
:100AE0001A04024070B5064600252148006820F42B
:100AF00040201F49086008460068086000242CE078
:100B00004FF480701A491A310880052001F07EFAEE
:100B10004FF48070164918310880042001F076FAED
:100B200013481030006800F4007008B1012000E0A4
:100B30000020012805D1C4F1070188402843C5B22F
:100B400004E0C4F107010120884085434FF4807020
:100B500007491A310880601CC4B2082CD0DB16B9D2
:100B6000FFF7F6FE01E0FFF785FF284670BD0000A5
:100B70000004024070B505461E48006820F440207D
:100B80001C4908600846006840F480200860002482
:100B900027E04FF4807017491A310880C4F107012B
:100BA00001208840284028B14FF4007011491831C5
:100BB000088004E04FF400700E491A3108800320C9
:100BC00001F024FA4FF480700A491831088003209C
:100BD00001F01CFA4FF4807006491A310880601C3D
:100BE000C4B2082CD5DB4FF40070024918310880DC
:100BF00070BD00000004024010B50C48006820F4ED
:100C000040200A4908600846006840F480200860D7
:100C10004815064918310880401008804000891C9A
:100C20000880062001F0F2F910BD00000004024027
:100C300010B51148006820F440200F4908600846AC
:100C4000006840F48020086088150B491A3108803C
:100C500040000880042001F0D9F94FF48070064963
:100C600018310880042001F0D1F94FF400700249D6
:100C70001831088010BD00000004024010B50024A7
:100C80001748006820F440201549086008460068AD
:100C900008604815124918310880012001F0B6F9A2
:100CA0004FF480700E4918310880012001F0AEF930
:100CB00007E0601CC4B2FA2C03DDFFF7B9FF012086
:100CC00010BD07481030006800F4007000B1F0E774
:100CD0004FF4807002491A3108800020F0E70000CC
:100CE000000402402DE9FC4104460D4616466B46C1
:100CF00006223B21682000F072F80746BFB99DF834
:100D000001009DF8001040EA012000B220809DF80B
:100D100003009DF8021040EA012000B228809DF8EF
:100D200005009DF8041040EA012000B230803846EA
:100D3000BDE8FC8110B580216B2000F0CCF8642068
:100D400001F048F900216B2000F0C5F8002000F008
:100D500080F8322000F0A2F80021382000F0BBF823
:100D600000216A2000F0B7F80021232000F0B3F83A
:100D70008021372000F0AFF8752000F013F804460A
:100D8000682C0BD101216B2000F0A5F807216C2005
:100D900000F0A1F8322000F081F801E0012010BD40
:100DA0000020FCE770B50446FFF726FFD020FFF7D0
:100DB000E1FEFFF763FF2046FFF7DCFEFFF75EFF73
:100DC000FFF71AFFD120FFF7D5FEFFF757FF0120ED
:100DD000FFF788FE0546FFF72BFF284670BD2DE97B
:100DE000F04106460F4614461D46FFF705FF002159
:100DF00041EA4601C8B2FFF7BDFEFFF73FFF20B151
:100E0000FFF716FF0120BDE8F0813846FFF7B2FE7C
:100E1000FFF734FFFFF7F0FE012101EB4601C8B2F6
:100E2000FFF7A8FEFFF72AFF0DE0012C04D10120F7
:100E3000FFF758FE287003E00020FFF753FE2870EC
:100E4000601EC4B26D1C002CEFD1FFF7F1FE002034
:100E5000D9E710B50446E006010E1C2000F03BF86F
:100E600010BD70B504460025BC2C01DB012510E047
:100E7000622C01DB02250CE02A2C01DB032508E0B3
:100E8000142C01DB042504E00A2C01DB052500E01D
:100E9000062529461A2000F01EF870BD70B50446DC
:100EA000B4F57A7F01DD4FF47A74042C00DA04245F
:100EB0004FF47A7090FBF4F0401EC5B22946192019
:100EC00000F009F80546264604EBD671C1F34F0041
:100ED000FFF7C7FF70BD70B505460C46FFF78CFEE7
:100EE000D020FFF747FEFFF7C9FE18B1FFF7A0FEBD
:100EF000012070BD2846FFF73DFEFFF7BFFE2046EC
:100F0000FFF738FEFFF7BAFE18B1FFF791FE012098
:100F1000EFE7FFF78DFE0020EBE72DE9F0410446F7
:100F20000D462746002614E04FF08040C76300F0CE
:100F300012FE4FF4C87001F04DF800204FF08041D0
:100F4000C86300F001FE4FF4C87001F043F8701C54
:100F5000C6B2AE42E8DBBDE8F08110B5312140F207
:100F6000F31000F001FE10BD70B5002419E004F18B
:100F7000B001C8B2002100F0C1F90021022000F048
:100F8000BDF90021102000F0B9F9002505E001218C
:100F9000002000F0B3F9681CC5B2802DF7DB601C9F
:100FA000C4B2082CE3DB70BD802001490880704783
:100FB000180402402DE9F05F05460E461746984694
:100FC000DDF828A04FF0000B344615E021462846F6
:100FD00000F08EF8A9460BE059460BF1010B1AF808
:100FE0000100012100F08AF909F1010000F0FF0978
:100FF000B945F1DB601CC4B24445E7DBBDE8F09FB6
:101000002C48006840F003002A4908602A4800681C
:1010100020F04060284908600846006840F0806081
:101020000860081D006820F40050091D0860081DB4
:10103000006820F04060091D08600846006840F024
:10104000006008601D48006820F040401B490860AF
:101050000846006840F0804008600846406820F478
:10106000004048600846806820F04040886008469C
:10107000806840F0004088600F48006820F44040DD
:101080000D4908600846006840F480400860081D6B
:10109000006820F08000091D0860081D006820F429
:1010A0004040091D08600846006840F400400860A0
:1010B0000020704730380240000402400000024027
:1010C00010B54FF4005006490880192000F082FF47
:1010D0004FF400500249891E0880002010BD000016
:1010E0001A04024080200149088070471A04024017
:1010F00070B504460D46A01CC4B205F1B001C8B2DB
:10110000002100F0FBF8102141EA1410002100F04A
:10111000F5F804F00F0141F00100002100F0EEF8B5
:1011200070BD00002DE9F04180460E4615460027AF
:1011300031464046FFF7DCFF00240AE0124A02EB8A
:101140008511085D012100F0D9F8781CC7B2601C38
:10115000C4B2102CF2DB701CC1B24046FFF7C8FFCE
:1011600000240CE06900491C074A02EB4111085DAC
:10117000012100F0C3F8781CC7B2601CC4B2102C67
:10118000F0DBBDE8F08100002E0000202DE9F047E3
:1011900080460E4691461F4600250024A9F12000F6
:1011A000C5B2B8F17F0F02DDA046B01CC6B2182F41
:1011B0003DD131464046FFF79BFF00240AE005EB96
:1011C000450104EB0111384A505C012100F096F80A
:1011D000601CC4B2102CF2DB701CC1B24046FFF799
:1011E00087FF00240BE005EB450104EB01111031F2
:1011F0002D4A505C012100F081F8601CC4B2102C13
:10120000F1DBB01CC1B24046FFF772FF00240BE0D7
:1012100005EB450104EB01112031234A505C01210B
:1012200000F06CF8601CC4B2102CF1DB39E0102F18
:1012300024D131464046FFF75BFF002408E004EB71
:1012400005111A4A505C012100F058F8601CC4B224
:10125000082CF4DB701CC1B24046FFF749FF0024A4
:1012600009E004EB05110831104A505C012100F03F
:1012700045F8601CC4B2082CF3DB12E0314640464E
:10128000FFF736FF00240AE005EB4501084A02EBB0
:101290004101085D012100F031F8601CC4B2062C48
:1012A000F2DBBDE8F0870000484F00083047000837
:1012B000204D00082DE9F04104460F46154698469A
:1012C000002616E0AA5D434639462046FFF75EFF3A
:1012D000B8F1180F03D104F11000C4B202E004F118
:1012E0000800C4B2782C02DD0024B81CC7B2701C00
:1012F000C6B2A85D0028E5D1BDE8F08170B505460D
:101300000C4624B14FF400400749088303E04FF432
:10131000004005494883FFF7E5FE284600F018FB2A
:10132000FFF742FE70BD00000000024010B5FFF75D
:1013300067FEFFF739FEFFF7C3FE0021AE20FFF77F
:10134000DDFF00210220FFF7D9FF00211020FFF769
:10135000D5FF00214020FFF7D1FF00218120FFF7BA
:10136000CDFF0021CF20FFF7C9FF0021A120FFF70B
:10137000C5FF0021C820FFF7C1FF0021A620FFF70D
:10138000BDFF0021A820FFF7B9FF00213F20FFF794
:10139000B5FF0021D320FFF7B1FF00210846FFF77A
:1013A000ADFF0021D520FFF7A9FF00218020FFF726
:1013B000A5FF0021D920FFF7A1FF0021F120FFF7B1
:1013C0009DFF0021DA20FFF799FF00211220FFF78F
:1013D00095FF0021DB20FFF791FF00214020FFF760
:1013E0008DFF00212020FFF789FF00210220FFF759
:1013F00085FF00218D20FFF781FF00211420FFF7DA
:101400007DFF0021A420FFF779FF0021A620FFF730
:1014100075FF0021AF20FFF771FF0021AF20FFF71C
:101420006DFFFFF7A1FD00210846FFF761FE10BD2B
:10143000014600BF081100EB8000420001F00F00E0
:101440001044C0B270470146002204E0501CC2B2F2
:10145000A1F10A00C1B20A29F8DA100741EA1060C6
:1014600070470000F0B504460D4616461F4600239F
:1014700000BF00F059F90028FBD10A480368C3F304
:101480000740FFF7D5FF2070C3F30420FFF7D0FF1C
:10149000287003F03F00FFF7CBFF3070C3F34230FA
:1014A0003870F0BD0428004000B588B004AB05AA30
:1014B00006A907A8FFF7D6FF9DF81C001049087081
:1014C0009DF8180048709DF8140088709DF8100071
:1014D000C8706B4601AA02A903A800F013F89DF892
:1014E0000C00074908719DF8080048719DF8040038
:1014F00088719DF80000C871084608B000BD000062
:1015000058060020F0B504460D4616461F46002337
:1015100000BF00F009F90028FBD10A480368C3F3B3
:101520000540FFF785FF2070C3F30620FFF780FF1B
:10153000287003F07F00FFF77BFF3070C3F3875004
:101540003870F0BD002800400CB52D4903C9CDE925
:1015500000012C48006840F080502A4908602A4861
:10156000006840F4807028490860264830300068E0
:1015700040F0010023493031086000BF214830307D
:10158000006800F002000028F8D01E4830300068E3
:1015900020F440701B49303108600846006840F470
:1015A000807008600846006840F400400860CA2067
:1015B000164908605320086000F02AF808B101209D
:1015C0000CBDFF201149143908600846006840F43A
:1015D000FE0008600D481C38006820F040000B49F0
:1015E0001C390860081D006820F08000091D086093
:1015F000FF2006490860684600F054F80020DFE745
:101600003057000840380240007000402428004055
:101610000A48006800F0400008B100207047074801
:10162000006840F080000549086000BF034800687A
:1016300000F040000028F9D00020EFE70C2800401F
:101640002DE9F04106460C4615460027CA201449EC
:10165000086053200860FFF7DBFF10B10120BDE8F0
:10166000F0813046FFF7EFFE000403F0070140EA87
:1016700041382046FFF7E7FE48EA00282846FFF7F2
:10168000E2FE48EA00070648203807600448183898
:10169000006820F080000249183908600020DEE769
:1016A0002428004030B50446E379A2796179207995
:1016B00000F008F8E378A27861782078FFF7C0FF9F
:1016C00030BD00002DE9F04106460C4615460027C6
:1016D000CA201449086053200860FFF799FF10B131
:1016E0000120BDE8F0813046FFF7ADFE000403F0B5
:1016F000010140EA81582046FFF7A5FE48EA00288C
:101700002846FFF7A0FE48EA00070648243807608D
:1017100004481838006820F0800002491839086031
:101720000020DEE724280040CA200C49086053202E
:1017300008600A481838006820F020000749183966
:10174000086000BF05481838006800F02000002835
:10175000F8D0FF200149086000207047242800408D
:1017600010B500F090F810BD70B504462046FFF7A4
:10177000B9F90546284670BD10B5F52000F00CF803
:10178000044880ED010AF32000F006F8014880EDDE
:10179000000A10BD500600202DE9F0412DED048B0C
:1017A0000446012700F05EF8FFF726FA802000F0DB
:1017B00076F80746002F49D1204600F070F898BB14
:1017C00000BF062000F006FCFFF716FA812000F0AB
:1017D00066F80128F5D00020FFF7C6FF0546002077
:1017E000FFF7C2FF06460120FFF7BEFFFFF720FA12
:1017F00006F0FC0606EB052000EE100AB8EEC08AE3
:10180000F52C12D19FED130A28EE000A9FED121A53
:10181000C0EE010AB1EE080A70EEC08AB0EE680AA6
:10182000BDEC048BBDE8F08110E0F32C0ED19FEDF0
:101830000B0A28EE000A9FED081AC0EE010A9FED80
:10184000080A30EEC09AB0EE490AE9E7B7EE000A9E
:10185000E6E700000000FA420000804752B82F433C
:1018600066663B4210B5FFF7C7F9802000F017F815
:1018700030B9E62000F013F810B9832000F00FF81B
:10188000FFF7D6F910BD10B5FFF7B6F9802000F0CC
:1018900006F8FE2000F003F8FFF7CAF910BD70B596
:1018A00004462046FFF766F9FFF7E8F905462846A3
:1018B00070BD00002248006840F080502049086058
:1018C0002048006840F440401E4908601C483838F1
:1018D00000681B49383908600846006808600846F7
:1018E000006840F4805008601748091F0860081F0E
:1018F000006840F08070091F086000BF1048403841
:10190000006800F000700028F8D040F202700F4923
:1019100008600B483838006820F00300084938395F
:1019200008600846006840F00200086000BF0448F4
:101930003838006800F00C000828F8D17047000023
:10194000403802400070004010640107003C024033
:10195000014600BF0948008900F002000028F9D0C4
:101960000648818100BF0548008900F00100002879
:10197000F9D002488089C0B27047000000300140B1
:101980002348006840F002002149086020481430D4
:10199000006840F480501E49143108601D480068FA
:1019A00020F47C601B4908600846006840F4286009
:1019B0000860184820300068174908401549203150
:1019C000086008460068154908431249203108603C
:1019D00010480830006820F47C600E490831086027
:1019E0000846006840F42860086000200C49088020
:1019F0000846008840F4407008800846008840F09F
:101A0000040008800846008840F0400008807047C5
:101A10003038024000040240FF0F00FF0050550024
:101A20000030014010B51548006840F470001349BB
:101A300008601348006840F0010011490860002068
:101A40000F49083108600E4800680E4908400C49EB
:101A500008600D48091D0860081F006820F48020F8
:101A6000091F0860002006490C310860FFF722FFBB
:101A70004FF0006001498039086010BD88ED00E03A
:101A800000380240FFFFF6FE1030002400B58DB094
:101A900049E0274807234022002100900846FFF72D
:101AA00089FA092200214820FFF73CFB0A22002185
:101AB0005A20FFF737FB0B2200216C20FFF732FB87
:101AC000FFF75AFE03C8CDE90B019DED0C0ABCEEF1
:101AD000C00A10EE100AC3B29DED0B0ABCEEC00A9C
:101AE00010EE100AC2B213A101A8FEF7E5FB102305
:101AF00001AA06214820FFF7DDFB102310A20621D2
:101B00007820FFF7D7FB00F041FC60B10D4800786A
:101B1000401C0C49087001214FF4FA70FFF7FDF9E1
:101B2000FFF786F800E0B4E700BF0DB000BD00008D
:101B300010400008253032646320253032640000F4
:101B400025000000040000204FF0804000884FF086
:101B50008041088070474FF08040008840F00100CD
:101B60004FF0804108807047264A126842F0010217
:101B7000244B1A60234A103A126842F00202214BA9
:101B8000103B1A60204A126822F440121E4B1A6061
:101B90001A46126842F400121A601A46526A22F477
:101BA0007063194A5362526A42F48073164A536250
:101BB0001205D06213461985FA22DA635207928B16
:101BC00022F003029A831A46928B22F070029A83C3
:101BD0001A46928B42F060029A831A46928B42F028
:101BE00008029A831A46128C42F480721A841A46AA
:101BF000128C22F400721A841A46128842F00102F2
:101C00001A807047403802400004024008480088AB
:101C100000F0010028B10748406980F080000549C4
:101C200048610348008820F001000149088070479E
:101C300010040040000002402DE9F04303460C462A
:101C40003B48006840F002003949086039480360A9
:101C5000001F0480002037490839086035482038C3
:101C6000008840F0010033492039088031482C3881
:101C7000008840F001002F492C39088005200546D6
:101C80002D4E31684FF6FF0631402C4E0E4346EA8A
:101C90000521294E316000BF022500260146C1F111
:101CA0000708B8F1040F02D94FF0040801E0C1F1B0
:101CB0000708C44601F10408B8F1070F02D24FF03B
:101CC000000801E0A1F1030847464FF0010808FAB7
:101CD0000CF8A8F1010808EA050808FA07F84FF01F
:101CE000010909FA07F9A9F1010909EA060948EA0F
:101CF000090200BF1D211046002908DA05072F0E32
:101D00000D4D0C3501F00F06361FAF5503E00507EA
:101D10002E0E0B4D6E5400BF1D2001218140450940
:101D2000AD0005F1E025C5F8001100BFBDE8F08366
:101D3000403802402C0400400CED00E00000FA05A1
:101D400000E400E000B51048008800F02000C8B1B1
:101D50000D4880880D490E4A127888540C48007846
:101D6000401C0B4908700846007805280AD108462F
:101D70000078084908700521044800F00DF800209B
:101D80000349087000BD000000100140F806002063
:101D90002D0000202C00002000B502460B4603E079
:101DA000107800F03DFC521C1800A3F10101CBB2E9
:101DB000F6D100BD10B5FFF777FB10BD30380A280B
:101DC00001D20120704700207047000008B5FEF7DF
:101DD000ADFC642000F0FEF8FEF7FCFC5EE031484C
:101DE00007233622002100900846FFF7E3F804227B
:101DF00000215A20FFF796F9052200216C20FFF7F9
:101E000091F94FF4FA7000F0E5F8FEF7A5FC2648CA
:101E1000FEF7CEFC2448C07930B9102323A2042158
:101E20004020FFF747FA23E01F48C079012815D169
:101E3000102320A204214020FFF73CFA1A48C37A5D
:101E4000827A1EA12048FEF737FAFEF759FC1023CC
:101E50001D4A06214020FFF72DFA09E01248C079FB
:101E6000022805D1102319A204214020FFF722FAED
:101E700000F08CFA90B117480078401C15490870A2
:101E800001214FF4FA70FFF748F8FEF7D1FEFEF794
:101E900037FCFEF74FFFFFF767F800E09FE700BF52
:101EA00008BD0000A23B000888060020746573741A
:101EB000696E6700737563636573730025303364FF
:101EC0002F25303364200000600600206661696CB5
:101ED000202020000400002038B540E0FFF76AFF12
:101EE0000446FFF767FF0446637922791DA1204865
:101EF000FEF7E2F918231E4A05211B20FFF7DAF945
:101F0000A0780090637822781AA11948FEF7D4F9D6
:101F10001423174A03211820FFF7CCF90C220021C3
:101F20001220FFF7FFF80D2200212420FFF7FAF816
:101F3000102315A200213220FFF7BCF900F026FA89
:101F400060B113480078401C1149087001214FF41A
:101F5000FA70FEF7E2FFFEF76BFE01E000BFBDE79F
:101F600000BF38BD253032643A25303264000000AD
:101F7000600600203230253032642E253032642E47
:101F8000253032640000000020262054494D4500D1
:101F9000040000204FF0E021096921F004014FF016
:101FA000E0221161C21700EB5272C2F3C702074B65
:101FB0001A701946097801EB4102C2EBC1114FF6C4
:101FC000FF7202EAC101024A118070472800002016
:101FD0002A00002070B504464FF4077094FBF0F01F
:101FE000C6B24FF4077094FBF0F100FB114085B2CC
:101FF00005E04FF4077000F027F8701EC6B2002EFF
:10200000F7D115B1284600F01FF870BD01460D4A02
:1020100012784A434FF0E0235A6100229A6101226C
:102020001A6100BF4FF0E022106900F001021AB1FE
:1020300000F48032002AF5D000224FF0E0231A612C
:102040009A6170472800002001460D4A12884A43D1
:102050004FF0E0235A6100229A6101221A6100BF09
:102060004FF0E022106900F001021AB100F4803252
:10207000002AF5D000224FF0E0231A619A617047E0
:102080002A0000201748006840F001001549086048
:1020900014481430006840F480401249143108603C
:1020A0001148006820F00F000F49086008460068DA
:1020B00008600E48006840F001000C4908600B48B9
:1020C0000838006840F00100084908390860062017
:1020D000012181404209920002F1E022C2F8001180
:1020E00000BF70473038024008380140083C0140CA
:1020F0002DE9F0416448006840F00100624A106038
:102100006248006820F44020604A10601046006871
:1021100040F4002010601046406A20F0F0025B4856
:102120004262406A40F0700258484262006820F4FF
:102130004010564A10601046006840F400101060CD
:102140001046406A20F4706250484262406A40F48F
:10215000E0624E4842624C481430006840F0100083
:10216000494A14321060DFED4A0AB0EE600AFCEE14
:10217000C00A10EE900A81B200EE901AF8EE600AE2
:1021800070EE600AB0EE600A080100EE900AF8EE08
:10219000E00AB3EE001A40EE010AFCEEE00A10EE8F
:1021A000900A81B23B480181808940F00400394A9D
:1021B00090811046808940F0080090811046808907
:1021C00040F4005090811046808940F020009081BA
:1021D00005200446304D2A684FF6FF052A402F4D52
:1021E000154345EA04222C4D2A6000BF0324002534
:1021F0000246C2F1070CBCF1040F02D94FF0040CE7
:1022000001E0C2F1070C674602F1040CBCF1070FB4
:1022100002D24FF0000C01E0A2F1030C66464FF031
:10222000010C0CFA07FCACF1010C0CEA040C0CFAE2
:1022300006FC4FF0010808FA06F8A8F1010808EAC0
:1022400005084CEA080300BF25221846002A08DAD0
:102250000407260E104C0C3402F00F052D1F665596
:1022600003E00407250E0E4CA55400BF252000F006
:102270001F040122A2404409A40004F1E024C4F890
:10228000002100BFBDE8F08130380240000002406C
:10229000ABC22244001001400CED00E00000FA0542
:1022A00000E400E008B543E0FEF75EFE102322A242
:1022B00001214020FEF7FEFF102321A20321402030
:1022C000FEF7F8FF102320A205214020FEF7F2FFC1
:1022D0001F48007878B901201D4908701D48072360
:1022E0003622002100900846FEF764FE4FF49670F7
:1022F000FFF770FE0EE0002015490870164807230E
:102300003622002100900846FEF754FE4FF49670E6
:10231000FFF760FE00F03AF850B101200F49087055
:1023200001214FF4FA70FEF7F8FDFEF781FC00E0A2
:10233000BAE700BF08BD000050726574656E6400A6
:1023400020746F206265200073746570696E670089
:1023500010000020D631000850330008040000208F
:102360000848006840F00100064908600648006817
:1023700020F00300044908600846C06820F003000C
:10238000C8607047303802400000024010B516485F
:102390000078D0B11548006900F0010008B10120B3
:1023A00000E00020012810D100200F4908700A2009
:1023B000FFF710FE0D48006900F0010008B1012090
:1023C00000E0002001280CD110BD0848006900F091
:1023D000010008B1012000E0002010B901200249ED
:1023E00008700020F0E700002600002000000240F6
:1023F0001248006840F00100104908601048006869
:1024000020F440400E4908600846006840F48040CF
:1024100008600846406820F08000486008468068F0
:1024200020F4404088600846806840F4004088609E
:102430000846406940F080004861704730380240EB
:102440000000024008B56420FFF7A4FDFFF7D0FFAD
:10245000FFF786FFFEF7B4FAFFF782F9FFF790FA6D
:10246000FEF764FFFEF71CF9FFF76EF8FFF70AFEB0
:10247000FFF73EFE41F2873142F20F70FFF7DCFBBF
:10248000FFF77EFAFEF752FFFEF79AFAFFF768F9B8
:10249000FEF72EFAFEF74EFCFEF75FFD0020FEF77A
:1024A000D8FC02214FF4FA70FEF737FD20480823CC
:1024B0008022002100900846FEF77CFD4FF4FA6070
:1024C000FFF788FD1B4A1C491C48FEF70BFC2DE05A
:1024D0001B480078072827D2DFE800F02604090E01
:1024E000131A2100FEF740FDFFF7F6FC1DE0FEF792
:1024F0003BFDFFF7CBFA18E0FEF736FD00F022F8BF
:1025000013E0FEF731FDFFF761FC00F095F80CE0F9
:10251000FEF72AFD00F090F8FFF7C4FE05E0FEF795
:1025200023FDFFF7BFFE00E000BF00BFD0E70000C3
:10253000A228000824000020220000202000002003
:102540000400002008B5FEF75BF954E02B48007842
:1025500078B901202949087029480723362200212B
:1025600000900846FEF726FD4FF49670FFF732FD07
:102570000EE000202149087022480723362200215E
:1025800000900846FEF716FD4FF49670FFF722FD07
:10259000022200215A20FEF7C5FD032200216C20F3
:1025A000FEF7C0FDFEF7EEF81748FEF701F91648F2
:1025B000C27916A11748FDF77FFE1023154A0421A2
:1025C0004020FEF777FE102313A204215820FEF7C7
:1025D00071FEFFF7DBFE70B110480078401C0F4918
:1025E000087001214FF4FA70FEF797FCFEF720FB0C
:1025F000FEF79CF800E0A9E700BF08BD100000202E
:102600005C300008E22E0008A0060020253033646C
:10261000000000006006002062706D0004000020D1
:1026200000BF0449098801F040010029F9D001499F
:10263000888070470010014008B5FEF761F8F8E0A7
:102640007D4A7E497E48FEF74DFB7D48B0F900008B
:1026500000EE100AB8EEC00ADFED7A0A80EE201A0A
:10266000B2EE040A21EE000A774880ED000A7348B2
:10267000B0F9000000EE100AB8EEC00ADFED710AF2
:1026800080EE201AB2EE040A21EE000A6F4880EDB7
:10269000000A6948B0F9000000EE100AB8EEC00A5E
:1026A000DFED680A80EE201AB2EE040A21EE000A7D
:1026B000674880ED000A644890ED000AB5EEC00A54
:1026C000F1EE10FA11DB90ED000ABCEEC00A10EE3C
:1026D000100AC2B25FA16148FDF7EEFD10235F4A08
:1026E00001214820FEF7E6FD13E0574890ED000A6F
:1026F000B1EE400ABCEEC00A10EE100AC2B258A1F8
:102700005648FDF7D9FD1023544A01214820FEF711
:10271000D1FD4E4890ED000AB5EEC00AF1EE10FA78
:1027200011DB90ED000ABCEEC00A10EE100AC2B236
:102730004DA14A48FDF7C0FD1023484A0321482017
:10274000FEF7B8FD13E0414890ED000AB1EE400AF3
:10275000BCEEC00A10EE100AC2B245A13F48FDF718
:10276000ABFD10233D4A03214820FEF7A3FD384866
:1027700090ED000AB5EEC00AF1EE10FA11DB90ED13
:10278000000ABCEEC00A10EE100AC2B23AA13348E9
:10279000FDF792FD1023314A05214820FEF78AFDFE
:1027A00013E02B4890ED000AB1EE400ABCEEC00ADF
:1027B00010EE100AC2B232A12848FDF77DFD1023A9
:1027C000264A05214820FEF775FD2F48007878B984
:1027D00001202D4908702D48072336220021009042
:1027E0000846FEF7E7FB4FF49670FFF7F3FB0EE0A9
:1027F0000020254908702648072336220021009032
:102800000846FEF7D7FB4FF49670FFF7E3FBFFF7A0
:10281000BDFD70B11F480078401C1E4908700121A1
:102820004FF4FA70FEF779FBFEF702FAFEF79CFB15
:1028300000E005E700BF08BD2400002022000020C2
:102840002000002000008046140000201800002016
:102850001C000020583A253032642000B8060020C1
:10286000583A2D2530326400593A25303264200020
:10287000593A2D25303264005A3A2530326420000E
:102880005A3A2D253032640010000020D63100085D
:1028900050330008040000204FF04070E1EE100AB1
:1028A000704700000000000000E078B8E02020A0A1
:1028B000E0F0101010F0F000000000000000000038
:1028C00000C0E0B8D870E080F8F8606030B09000E8
:1028D000000000000000000000303030303030F0E8
:1028E000F030101818000000000000000000000088
:1028F0003030F0303030303030F0F03030303000C8
:102900000000000000000000808080E00000000067
:10291000000000C0E0606060C080000000000000B7
:102920000000000000000000090DFDFBDBDBDFDD27
:10293000D9DFDEDEFEF70700000000000000000027
:1029400000FE5A5A5A5AFF01FBFB622232339B8027
:1029500000000000000000001013131313131313E2
:10296000FFFF13131313100000000000000000000D
:102970008686FF86E6F0180E07FFFF070E1C38005C
:102980000000000000000000010101FF000000C085
:10299000C0803EFF80000000E1FF0000000000005A
:1029A0000000000000000000000003030202020219
:1029B0000202020203030000000000000000000009
:1029C00000070702060607000303060606060300C3
:1029D00000000000000000000000000307060607DA
:1029E00003000000000000000000000000000000E4
:1029F00001010100000000000007070000000000C6
:102A000000000000000000000000000300000001C2
:102A100001000000010303030100000000000000AA
:102A2000000000000000000000FC0C0C0C0C0C0C62
:102A300018F0000080C0606040C00000C0C0C0400E
:102A40006040C080000080C040C0C0FCFC0000C0EE
:102A5000C06060C0C00000C0C0C0C0400000C0C0B6
:102A60006060C0800000F8FC0C0C0C0C8CF870004E
:102A700000C0C0606040C08000C0C0C04060C0C036
:102A8000C0000080C040C0C0FCFC0000000000008E
:102A90000000000000000000000000000000000036
:102AA0000000000000000000007F0202020202039A
:102AB000030100007D4D4C46667F49007F7F00008A
:102AC00000007F7F003F73404040607F7F001F7F9A
:102AD000604040607F1F007F7F00000000387D4C19
:102AE0004446767F40007F7F4141414163633E1C05
:102AF000307D4C4446667F7F407F7F000000007F32
:102B00007F003F7B604040607F7F0000000000004E
:102B100000000000000000000000000000000000B5
:102B2000000000000000000000808080808080C0E5
:102B3000C080808080808000000000C0C0000080D5
:102B4000C000008080000000000000C0C000000045
:102B50008080808080800000000000000000000075
:102B600000000000000000C0C000000040C00000E5
:102B7000000000000000C0C00000000000C0C00055
:102B80000000000000C0800000808080C080808045
:102B90008080000000000000000000000000000035
:102BA0000000000000000000203119392D37B3BFAC
:102BB000FFF7756D191931103038FFFF6476B7DFF4
:102BC000EEF6C6CFDFF7240000FFDBD9D9D9FF7FAF
:102BD000FFFF888888FFFF0000C0DE7B61F39E8CCA
:102BE000C000000CCDEDBDBFBFADFDADBDBFBDEDA7
:102BF000ED0C0011190DBFBFC76D595D4F7FFFCDA3
:102C0000191900C6FE1F06F6FFDD5F5757575757C5
:102C10005FCD000000000000000000000000000088
:102C200000000000000000000103031B1B333331D0
:102C30001F1F01030303030000003F3F3633191B2E
:102C40001F0E0E1B19303000003F3F18190F3F3C7C
:102C50001F030030303F1F00070F0818180D0F0723
:102C60000D08003033371E1E0E0607060E1E1E37D7
:102C70003720000233333110191B1E0C0E060301DE
:102C800000000030190F07070D091333311F01032E
:102C90000301000000000000000000000000000030
:102CA0000000FF03050911A141FFFF081422418024
:102CB00000FFFF205088040201FFFF80C0A0918A1E
:102CC00084FFFF010305895121FFFF040A11204001
:102CD00080FFFF102844820100FFFFC0A09088857C
:102CE00082FF000000000000000000000000000063
:102CF00000000000000000000000000000000000D4
:102D000000000000000000000000000000000000C3
:102D100000000000000000000000000000000000B3
:102D20000000000000000000000000000000008023
:102D30008080808080808080808080808080808093
:102D40000000000000000000000000000000000083
:102D50000080C0E0F0F8FCFCC000000000000000B3
:102D6000000000000000000000000000000000FF64
:102D7000FFFF0303030303030303030303073FFFEF
:102D8000FCE00000000000000000C0F0F8F87C3C0F
:102D90003FFFFFFF7F7F7F7F7F383838383010005C
:102DA000000000000000000080C0C0E0E0E0E0FFA4
:102DB000FFFFC080808080808080808080808081D4
:102DC0008FBFFFF8E08080F0FCFF7F1F070100004D
:102DD00000000000000000000000000000000000F3
:102DE00000000000000078BEDFEFFFF77F7B7B7BF9
:102DF0007B7BF7F7EFEFDF7FFFFFFFFFFFFFFFFFBB
:102E0000FF7FBFDFDFEFEFFFFFF1E0E0E0C080001A
:102E100000000000000000000000000000000000B2
:102E2000000000000030FFFFFFEF01000000000085
:102E300000000001C7FFFFFF787F7F7F7F7F7F3F1C
:102E400079FFFFFF870101000000010187FFFFFFFD
:102E5000FC00000000000000000000000000000076
:102E600000000000000001030F0F1F3E3C3C3C3CF3
:102E70003C3C3E1F1F0F0701000000000000000047
:102E8000000107070F1F1E1E1E1E1E1F0F0F070328
:102E90000000000000000000000000000000000032
:102EA0000000000000000000000000000000000022
:102EB0000000000000000000000000000000000012
:102EC0000000000000000000000000000000000002
:102ED00000000000000000000000000000000000F2
:102EE0000000000000000080C0E0E0F0F0F8F8FC16
:102EF000FCFCFCF8F8F0F0E0E0C0C080000080C00E
:102F0000C0E0E0F0F0F8F8F8FCFCFCFCF8F8F0E0C9
:102F1000E0C080000000000000C0F0FCFEFFFFFFEA
:102F2000FFFFFFFFFFFFFFFFFFFFFFFFFFFFFFFFB1
:102F3000FF3FFFFEFFFFFFFFFFFFFFFFFFFFFFFF62
:102F4000FFFFFFFFFFFFFFFFFFFFFCF8E080FEFF3A
:102F5000FFFFFFFFFFFFFFFFFFFFFF3F03033FFFF9
:102F6000FFFFFFFF3F07008000073FFFFFFFFFFF5E
:102F7000FFFFFFFFFFFFFFFFFFFFFFFFFFFFFFFF61
:102F8000FFFFFF3F03070707C7C7C7C7C7C7C7C7B5
:102F9000C1C0F0E080010F3F1F0380F8FFFFFFF882
:102FA000E001071F1F1F1F1F1F1F1F1F0F07070FF6
:102FB0001FFFFFFFFFFF7F1F030000000000000155
:102FC00003070F1F3F7FFFFFFFFFFFFCE0C0E0FC98
:102FD000FFFFFFFFFFFFFFFFFFFFFFFFFFFFFFFF01
:102FE000FFFFFEFC7C3E1F0F0703010000000000F6
:102FF00000000000000000000000000000010307C6
:103000000F1F3F7FFFFFFFFFFFFFFFFFFFFFFFFFE0
:10301000FFFF7F3F1F0F07030100000000000000BB
:1030200000000000000000000000000000000000A0
:1030300000000000000000000000000103070F1F57
:103040003F3F1F0F070301000000000000000000C9
:103050000000000000000000000000000000000070
:103060000000000000000000008080C0E0E0E0E020
:10307000C08080000000000000000000808080C050
:10308000E0E0E0E0C0C080000000000000000000C0
:103090000000000000000080C0F0F8FCFEFFFFFF11
:1030A000FFFFFFFFFFFFFFFFFFFFFEFEFCF8FCFC42
:1030B000FEFFFFFFFFFFFFFFFFFFFFFFFFFFFEFC25
:1030C000F8F0C080000000000000000000FFFFFFDB
:1030D000FFFFFFFFFFFFFFFF7F0F7FFFFFFFFFFFF0
:1030E0003F8781077FFFFFFFFFFFFFFFFFFFFFFF1E
:1030F000FFFFFFFFFFFFFFFFFFFF000000000000DA
:1031000000000003070767E7E7E7E7E7E7E1F8F80C
:10311000F0C10F1F0FC1F8FFFFFFFCE1CFDFDFDFC2
:10312000DFDFDFDF8F07078FFFFFFFFF7F3F0F032B
:10313000000000000000000000000000000001038B
:10314000070F1F3F7FFFFFFFFCF0FCFFFFFFFFFFAC
:10315000FFFFFFFFFFFFFFFFFFFF7F3F1F0F070383
:10316000010000000000000000000000000000005E
:103170000000000000000000000000000103070F35
:103180001F3F7FFFFFFFFFFF7F3F1F0F0703010070
:10319000000000000000000000000000000000002F
:1031A000000000000000000000000000000000001F
:1031B000000000000000000000000103010000000A
:1031C00000000000000000000000000000000000FF
:1031D00000000000000000000000000000000000EF
:1031E00000000000000000000000000000000000DF
:1031F000000000007EFFC3C3FFFE7EFFC3FF7EFC16
:10320000FCFCF0F0E0808000000000000000000006
:103210000000000000000000C0C0E0C0F07030F00E
:10322000E0F0781838F0E000000000F0FDFD0F0637
:103230000606060E0E0C1C197BF7EF8F0703000025
:10324000000000000000000000387CFC7F3F9FDF92
:10325000CEEFE76E6E67676FECDCCF070300000010
:10326000000003070E1C78F0E0000000000000F1F1
:10327000FF3F000000000000000000000000000010
:1032800000FCFE070301000000000080C0E0703F6A
:103290001F0000000000000000C0E0783E0F0700A3
:1032A0000000E0FC3F0701000000000000000000FB
:1032B00000000000000000073FFCF080000000005C
:1032C0007FFFC10000000000000000000000023F7E
:1032D0007FE0E0C0C0C0E0783F0F000000000000C9
:1032E00000000000000000000000000000000000DE
:1032F0003FFFFC0000000001038FFEF8000000000B
:1033000000000000000000000000000000000000BD
:1033100000000000000000000000000000000000AD
:10332000000000000000000103070E0E0E0E06074D
:103330000301000000000000000000000000000089
:10334000000000000000000000000000000000007D
:1033500000000000000000008080E0E0F8F8DCF8E9
:10336000FECEC6FEFCFE8F83E7FE7C000000000060
:10337000000000000000000000000000000000004D
:1033800000000000000000000000000000070F9F88
:10339000CFE7733B191D1C0D0D0C0C0D1DFBF90027
:1033A00000000080C0E0E0C08080C0C0C08000009D
:1033B000000000000000000000000000000000000D
:1033C0000000000000FFFF80000000000000E0F0AF
:1033D000381C0E0703000000001F3F7070FFBF9FE6
:1033E000BFB0BF9F3F3F7FFCFCF8E0E0C0000000A3
:1033F000000000000000000000000000071FFEF0B9
:10340000800000000F3F78E0C000000000000000D6
:103410003CFFFF830101010103030307061E7DFB3F
:10342000E3010000000000000000000000000000B8
:1034300000000000073F7FE0C0C0C0C0C0F17F3F78
:1034400000000000000000000103079EFCF80000DF
:10345000000000C0FC7F0F00000000000000000022
:10346000000000000000000000000000000001015A
:103470000101000000000000000000000080F0F8E2
:103480001E0F0301000000F8FF0F01000000000004
:10349000000000000000000000000000000000002C
:1034A000000000000000000000000000000000001C
:1034B000000000000F1F3838303030381E0F030076
:1034C00000000000000000000000000000000000FC
:1034D0000000000000000044C80088A8A8FCA8A8BC
:1034E000A888001020FC002090AC4828980000809C
:1034F00040F08C9090F09C9090800000F808A8A874
:10350000A8087C886C0800809C94949CE09C94B4EF
:10351000DC800020E42820208040BC20E0200080C7
:1035200084848484FC8484848480000048484848DF
:10353000F8444444440000F848F8009868C80CC8AF
:1035400048D800000000000000000000000000005B
:1035500000000000000000003F10003F0A0A0A2A95
:103560003F000004023F0101050921213F01000045
:10357000003F00000B0A121A260000241B001B2229
:103580002B3422310A3700043C2A2A3900392A2AEE
:103590003C0400201F01213F0020170817200000D5
:1035A000000020203F000000000000020202222252
:1035B0003F0202020202001F223F02211A07001FDF
:1035C000223B0000000000000000004848A8FC80EA
:1035D000809CA8A824300080A8C88CC8A880F808BF
:1035E000C8380000000000000000000000000000DB
:1035F00028C80808F8080888680000000000C0080B
:103600001060000080000088A8FCA8A8504CE85872
:10361000C000002090ACA8A8A8A8A8A8280800006E
:10362000000000000000000000000000E02030EC7E
:1036300020E02020E0000000F808080808E808085A
:10364000080800000000000000000000003F0A0A17
:103650000A0A2A3F000000003E1212123E003F08F4
:1036600008070000000B0700000000000000000237
:10367000020202023F0202020202000807001F20AB
:1036800020202038000700003F0A3F0005253F05A5
:103690000F010000000000000000000F10380000C3
:1036A000000B070000000000000000203F20203F2A
:1036B000203F20203F2000201F202121213F2125C5
:1036C00029200000000000000000008810F808E831
:1036D00008F800F000FC0020FCA4A4A4ECB4A4A40E
:1036E000FC2000F090909010004848F84400E00062
:1036F000FC0010E0000000F84848484844444440BA
:1037000000000808F8080808F8080800000000F0A1
:1037100090909498909090F00000000080800000BD
:103720000000000000000000000000000000000099
:103730000000000000000000000000000000000089
:103740000000000000000000000000100927100F1A
:1037500010270007203F00202B2A2A2A3F2A2A2A46
:103760002B200004080808070004033F0221201052
:103770001308040200201807003E12121212123E13
:1037800000012119070101013F0101010020180773
:103790003E1212121212123E000000030404030033
:1037A0000000000000000000000000000000000019
:1037B0000000000000000000000000000000000009
:1037C00000000000000000000000000000000000F9
:1037D000000000000000008810F808E808F800F079
:1037E00000FC0020FCA4A4A4ECB4A4A4FC20004091
:1037F00044C80020A0202020FC20004848F84400B5
:10380000BCA4A4A4BC00003094B4B414FC14B4B49C
:103810009430000020F00000008040B08C80808058
:103820008CB0408000205CD0505000E020FC20E0B4
:103830000000000080800000000000000000000088
:103840000000000000000000000000000000000078
:1038500000000000000000100927100F10270007CB
:10386000203F00202B2A2A2A3F2A2A2A2B20002008
:10387000100F1020202328282F200004033F0122AE
:1038800024243F24242000023A0A0A3A0E3A0A2A43
:103890003A020000080F0800000020100C0320204E
:1038A000201F00000002023F120A0007023F020729
:1038B00000000003040403000000000000000000FA
:1038C00000000000000000000000FFFFFFFFFF7F7E
:1038D0003F1F1F0F0F0707070707070F0F0F1F1FB8
:1038E0003F7FFFFF7F3F3F1F0F0F0F0707070707B0
:1038F000070F0F0F1F3F7FFFFFFFFFFFFFFF0F03AC
:1039000000000000000000000000000000000000B7
:1039100000E0381870E00000000000000000000027
:10392000000000000000000000000107FFFFFFFF93
:10393000E0000000000000000000C0701808F8C09F
:1039400000F07F03E0FCE0077EE0000000000000E4
:1039500000000000000000000000000000C0FFFFA9
:10396000FFFFE7F7E4E4E4342434262711080FF8D6
:10397000003FFE07E07E0700071E30272634242480
:10398000246643C1C143623C00000080E0F8FEFFB2
:10399000FFFFFFFFFFFFFFFFFFFFFEF8F0E0C0802B
:1039A000000F3E60603C0F000000000000000000BF
:1039B00000000000000080C0E0F0F8FCFFFFFFFF07
:1039C000FFFFFFFFFFFFFFFFFFFFFFFFFFFFFFFF07
:1039D000FFFFFFFEFEFCF8F0F0E0C0C08080C0C03A
:1039E000E0F0F0F8FCFCFEFFFFFFFFFFFFFFFFFF32
:1039F000FFFFFFFFFFFF03030303030303030303AF
:103A00000303030303030303030303030303030386
:103A10000303030303030303030303030303030376
:103A20000303030303030303000000000080C0E05E
:103A3000E0F0F0F8F8FCFCFCF8F8F8F0F0E0E0C09A
:103A4000C080000080C0C0E0E0F0F0F8FCFCFEFEAA
:103A5000FEFEFCF8F0E0E0C080000000000000C0C6
:103A6000F0FCFEFFFFFFFFFFFFFFFFFFFFFFFFFF79
:103A7000FFFFFFFFFFFFFF3FFFFEFFFFFFFFFFFF17
:103A8000FFFFFFFFFFFFFFFFFFFFFFFFFFFFFFFF46
:103A9000FCF8E080FEFFFFFFFFFFFFFFFFFFFFFFDF
:103AA000FF3F03033FFFFFFFFFFF3F0700800007CB
:103AB0003FFFFFFFFFFFFFFFFFFFFFFFFFFFFFFFD6
:103AC000FFFFFFFFFFFFFFFFFF3F03070707C7C71A
:103AD000C7C7C7C7C7C7C1C0F0E080010F3F1F03FA
:103AE00080F8FFFFFFF8E001071F1F1F1F1F1F1FA8
:103AF0001F1F0F07070F1FFFFFFFFFFF7F1F0300A1
:103B000000000000000103070F1F3F7FFFFFFFFFC2
:103B1000FFFCE0C0E0FCFFFFFFFFFFFFFFFFFFFF38
:103B2000FFFFFFFFFFFFFFFFFEFC7C3E1F0F0703B1
:103B30000100000000000000000000000000000084
:103B40000000000103070F1F3F7FFFFFFFFFFFFF84
:103B5000FFFFFFFFFFFFFFFF7F3F1F0F0703010076
:103B60000000000000000000000000000000000055
:103B70000000000000000000000000000000000045
:103B8000000103070F1F3F3F1F0F07030100000045
:103B90000000000000000000000000000000000025
:103BA0000000000000000000000000000000000015
:103BB00000000080C0C0C0C0C0C0C08000000000C5
:103BC00000000000000000000000000000000000F5
:103BD00000000000000000000000000000000000E5
:103BE00000000080E0F8FCFEFF3F1F070707070FFB
:103BF0001FFFFFFEFCF0000000C0F0F8F8F8F8F836
:103C0000F0F0E0E0C0808000000000000000000054
:103C10000000C0C0E0E0F0FCFEFF7F1F0F030000CB
:103C2000000080C0F8FCFFFF7F1F87E3F0FCFFFF70
:103C3000FFFFFFFFFFFFFFFFFFFFFFFFFFFFFFFE95
:103C4000FEFC38000078FEFFFFFFFFFFFFFFFF3F95
:103C50001F000000C0F0F8FEFF7F1F0FC3F1F8FE49
:103C6000FFFFFFFFFFFFFFFFFFFFFFFFFFFFFFFF64
:103C7000FFFFFFFF9F070300000000000001030398
:103C8000030303010000E0F8FCFFFF3F1F070138BA
:103C9000FEFFFFFFFFFFFFFFFFFFFFFFFFFFFF072D
:103CA000030161F0F0E00101030FFFFFFCF00000F1
:103CB0000000000000000000000000000F1F3F7F18
:103CC000FFFCF8F8F0F0F8FCFF7F3F0F070F0F1F25
:103CD0001F3F7F7F7F7E7878F8F0F1F7FE787C3F9A
:103CE0001F0F07010000000000000000000000009E
:103CF00000000000000000000000000000000000C4
:103D000000000000000000000000000000000000B3
:103D100000000000000000000000000000000000A3
:103D2000000000008080E060F8F89CF8FECEC6FE3F
:103D3000FCFE8F83E7FE7C00000000000000000016
:103D40000000000000000000000000000000000073
:103D5000000000000000000000070D9FCFE6733B4D
:103D6000191D1C0D0D0C0C0D1DF9F9000000008033
:103D7000C0E0E0C08080C0C0C08000000000000043
:103D80000000000000000000000000000000000033
:103D900000FFFF80000000000000E0F0381C0E076C
:103DA00003000000001F3F7070FF9F9FBFB0BF9FC8
:103DB0001E337FCCFCF860E0C00000000000000073
:103DC0000000000000000000071FFEF0800000005F
:103DD0000F3F78E0C0000000000000003CFFFF83C0
:103DE0000101010103030307061E7DFBE30100003F
:103DF00000000000000000000000000000000000C3
:103E0000073F7FE0C0C0C0C0C0F17F3F000000009E
:103E1000000000000103079EFCF80000000000C045
:103E2000FC7F0F0000000000000000000000000008
:103E3000000000000000000000000101010100007E
:103E400000000000000000000000F0F81E0F030159
:103E5000000000F8FF0F010000000000000000005B
:103E60000000000000000000000000000000000052
:103E70000000000000000000000000000000000042
:103E80000F1F3838303030381E0F0300000000009C
:103E9000000000000000000000000000000000F032
:103EA000F0E0C08000000000000000000000000002
:103EB0000000000000000000000000000000008082
:103EC000E0F038100000000000000000000020F0CA
:103ED000F0F0E0E0FCFFFFFFFFFFFFFEFCF8FFFF5C
:103EE000FEF8E0800000000000000000000000E09C
:103EF000E030381E0F01010000000000000000004B
:103F000000000000003FFFFFFFFFFFFFFFFFFFFF7C
:103F1000FFFFFFFFFFFFFFFFFF3F0000000000C0AB
:103F2000F0381C0E070300000080808080808080B5
:103F30000000000000000000000000000001030776
:103F40000F0F1F1F1F1F1F1F1F0F0F070301C0C0D1
:103F5000703C1E0703010100C0E0F8FEFFFFFFFFF9
:103F60007F7F7F7F7FFFFFFFFEFCF8F000000000F7
:103F70000000000000000000000000000080C0E021
:103F8000703C0E0703010000000000000000030F5A
:103F90001FFFFFFFFFFFFCF8F8F8FCFFFFFFFF7FAC
:103FA0001F0F0000000000000000000080C0C06083
:103FB000783E070301000000000000000000000040
:103FC000000000000000000001030F1F7FFFFF7FC3
:103FD0007F1F0F0101000000000000000000000032
:103FE00000000103000000000000000000000000CD
:103FF00000000000000000000000000000000000C1
:1040000000000000000000000000000000000000B0
:104010000000000000000000000000F8F8484848D8
:104020000000000000000000000000000000000090
:1040300000000000000000000000000000F8F84848
:1040400048480000000000000000000000000000E0
:104050000000000000000000000000FFFF929292AC
:104060000000000000000000000000000000000050
:1040700000000000000000000000000000FFFF92B0
:10408000929200000000000000000000000000000C
:104090000000000000000000000000FFFF242424B6
:1040A0000000000000000000000000000000000010
:1040B00000000000000000000000000000FFFF24DE
:1040C00024240000000000000000000000000000A8
:1040D000000000000000000080C0603F3F69C98907
:1040E00000000000000000000000000000000000D0
:1040F0000000000000000000000080C0603F3F6939
:10410000C98900000000000000000000000000005D
:104110000000000000000003070C183030180C8766
:10412000830000000000000000000000000000000C
:1041300000000000000000000003070C18303018D9
:104140000C07030000000000000000000000000059
:104150000000000000000000000000000000030458
:104160000403F00804020202020408000000000038
:10417000000000000000000000000000000000003F
:104180000000000000FFFF606060FFFF0000000013
:10419000000000000000000000000000000000001F
:1041A00000000102040808080804020000000000E2
:1041B00000000000000000000000000000000000FF
:1041C00000000000000F0F0000000F0F00000000B3
:1041D00000000000000000000000000000000000DF
:1041E00000000000000000000000000000000000CF
:1041F00000000000000000000000000000000000BF
:1042000000000000000000000000000000000000AE
:10421000000000000000000000C0E0E0E0E0C0801E
:10422000000000000000000000000000000000008E
:10423000000000000000000000000000000000007E
:104240000080E0F0F8F8F00000000000000000003E
:104250000000E0E0E0E0E0E0C0F0FFFFFFFFFFFF74
:10426000FFFEFEFCF8FFFFFEFCF8F0E0000000009F
:1042700000000000000000000080C0E0F0F8FC3EFC
:104280003F0F0F03010000000000000000000000CD
:10429000000007FFFFFFFFFFFFFFFFFFFFFFFFFF24
:1042A000FFFFFFFFFFFFFFFFFFFFFFFF000000001A
:1042B00000000000C0E0F0F8FC7F1F0F07030000C3
:1042C00000000000000000000000000000000000EE
:1042D000000000030F1F7FFFFFFFFFFFFFFFFFFF37
:1042E000FFFFFFFFFFFFFFFFFF7F1F1F00C0E0F08A
:1042F000F8FCFE3F1F0F0301C0E0F0F0F8F8F8F8FB
:10430000F8F8F8F8F8F8F8F8F8E0C08000000000D5
:104310000000000000000001010303030303030386
:1043200003030303030303C1E0F0F8FC7F1F0F073F
:10433000030100000000FEFFFFFFFFFFFFFFFFBFC4
:104340001F0F0F1FFFFFFFFFFFFFFFFFFFFE00001C
:10435000000000000000000000000000000000005D
:104360008080F0F8FCFE7F1F0F03010000000000BA
:10437000000000000000070F7FFFFFFFFFFFFFFFAF
:10438000FFFEFEFFFFFFFFFFFFFFFF7F0F030000A9
:104390000000000000000000000080E0F0F8FE7E59
:1043A0001F1F0703010000000000000000000000C4
:1043B0000000000000000000000003070F1F3F7F07
:1043C000FFFFFFFFFF7F1F0F07010000000000003D
:1043D000000000000000000000000F0F07010000B7
:1043E00000000000000000000000000000000000CD
:1043F00000000000000000000000000000000000BD
:1044000001030303000000000000000000000000A2
:10441000000000000000000070F0F06060E0C0806C
:10442000000000000000000000000000000000008C
:10443000000000000000000000000000000000007C
:104440000000000080C0C00000000000000000006C
:104450000000F8F870E0E0C080C0FFFF000001033A
:104460000F3E7CF0E0FF0F060CF8F0E000000000CB
:1044700000000000000000000000000080C0E070AC
:10448000381C0E07030100000000000000000000BF
:10449000000007FFF08000000001030100000000A1
:1044A000000000000000000000FFFFFF000000000F
:1044B0000000000080C0E070381C0E0703010000FF
:1044C00000000000000000000000000000000000EC
:1044D000000000030F1F7EFCE0E0C0808080808031
:1044E0008080808080C0C0F0FE7F3F1F80C0E07071
:1044F000381C0E0703010000C0E0F0F0F8F8F8F8EF
:10450000F8F8F8F8F8F8F8F8F0E0C08000000000DB
:104510000000000000000001010303030303030384
:104520000303030383C3E371381C0E070301000078
:104530000000000000F8FEFFFFFFFFFFFF1F0F0756
:1045400007070707070F1FFFFFFFFFFFFFFEF8002A
:1045500000000000000000000000000080C0E070CB
:10456000381C0E07030100000000000000000000DE
:104570000000000000030F1F3F7FFFFFFFFCF8F06B
:10458000F0F0F0F0F0F8FCFFFFFFFF7F3F0F0700B7
:104590000000000000006070381C0E0703010000DE
:1045A000000000000000000000000000000000000B
:1045B00000000000000000000000000103070F1FC2
:1045C0003F7FFF7F3F1F0F07030100000000000037
:1045D00000000000000000000000000000000000DB
:1045E00000000000000000000000000000000000CB
:1045F00000000000000000000000000000000000BB
:1046000000000000000000000000000000000000AA
:10461000F808E8E8E8E808E8E8E8E808E8E8E8E8AA
:1046200008E8E8E8E808F8E03F202F2F2F2F202F98
:104630002F2F2F202F2F2F2F202F2F2F2F203F0FC7
:10464000F808E8E8E8E808E8E8E8E808E8E8E8E87A
:10465000080808080808F8E03F202F2F2F2F202FE8
:104660002F2F2F202F2F2F2F2020202020203F0FD3
:10467000F808E8E8E8E808E8E8E8E80808080808CA
:10468000080808080808F8E03F202F2F2F2F202FB8
:104690002F2F2F20202020202020202020203F0FDF
:1046A000F808E8E8E8E8080808080808080808081A
:1046B000080808080808F8E03F202F2F2F2F202097
:1046C00020202020202020202020202020203F0FDC
:1046D000F80808080868E8E8C8C8888888C8C8E8EA
:1046E000E86808080808F8E03F202020202C2E2643
:1046F00027272323232327262E2C202020203F0F6B
:10470000F80808080808088888E8E8E8E8E8C8C859
:10471000C80808080808F8E03F20202020202023AF
:10472000232F2F2F2F2F26262620202020203F0F1B
:104730000000000000000000000000000000000079
:10474000000000F80000000000000033300000000E
:1047500000100C06100C0600000000000000000015
:1047600040C07840C0784000043F04043F04040087
:10477000007088FC08300000001820FF211E000097
:10478000F008F000E018000000211C031E211E00AC
:1047900000F00888700000001E2123241927211032
:1047A00010160E00000000000000000000000000D5
:1047B000000000E01804020000000007182040007C
:1047C00000020418E000000000402018070000006C
:1047D000404080F0804040000202010F01020200D0
:1047E000000000F0000000000101011F01010100B4
:1047F000000000000000000080B070000000000019
:1048000000000000000000000001010101010101A1
:104810000000000000000000003030000000000038
:10482000000000008060180400601806010000000D
:1048300000E010080810E000000F102020100F000A
:10484000001010F8000000000020203F2020000091
:1048500000700808088870000030282422213000E9
:1048600000300888884830000018202020110E00F1
:104870000000C02010F8000000070424243F24009A
:1048800000F80888880808000019212020110E006F
:1048900000E0108888180000000F112020110E0081
:1048A00000380808C83808000000003F0000000079
:1048B0000070880808887000001C222121221C003A
:1048C00000E010080810E0000000312222110F0063
:1048D000000000C0C00000000000003030000000F8
:1048E0000000008000000000000080600000000068
:1048F0000000804020100800000102040810200081
:1049000040404040404040000404040404040400CB
:104910000008102040800000002010080402010060
:10492000007048080808F000000000303601000060
:10493000C030C828E810E0000718272423140B0013
:104940000000C038E0000000203C2302022738208D
:1049500008F8888888700000203F202020110E0071
:10496000C030080808083800071820202010080068
:1049700008F808080810E000203F202020100F0051
:1049800008F88888E8081000203F2020232018001D
:1049900008F88888E8081000203F20000300000085
:1049A000C03008080838000007182020221E020026
:1049B00008F808000008F808203F210101213F20E5
:1049C000000808F8080800000020203F2020000010
:1049D00000000808F8080800C08080807F00000000
:1049E00008F888C028180800203F20012638200039
:1049F00008F8080000000000203F202020203000A0
:104A000008F8F800F8F80800203F003F003F2000B9
:104A100008F830C00008F808203F200007183F00C1
:104A2000E01008080810E0000F10202020100F00F0
:104A300008F808080808F000203F210101010000E3
:104A4000E01008080810E0000F18242438504F0028
:104A500008F8888888887000203F2000030C3020E8
:104A600000708808080838000038202121221C0026
:104A7000180808F8080818000000203F200000006F
:104A800008F808000008F808001F202020201F0058
:104A90000878880000C83808000007380E010000B8
:104AA000F80800F80008F800033C0700073C030082
:104AB000081868808068180820302C03032C3020E8
:104AC0000838C800C83808000000203F2000000057
:104AD00010080808C83808002038262120201800AF
:104AE000000000FE020202000000007F4040400083
:104AF000000C30C000000000000000010638C000BB
:104B000000020202FE000000004040407F00000062
:104B10000000040202020400000000000000000087
:104B20000000000000000000808080808080808085
:104B3000000202040000000000000000000000006D
:104B400000008080808000000019242222223F2063
:104B500008F8008080000000003F112020110E00A6
:104B60000000008080800000000E11202020110035
:104B7000000000808088F800000E112020103F20E7
:104B80000000808080800000001F2222222213006B
:104B9000008080F0888888180020203F20200000B6
:104BA0000000808080808000006B9494949360006B
:104BB00008F8008080800000203F210000203F2076
:104BC00000809898000000000020203F2020000076
:104BD000000000809898000000C08080807F000066
:104BE00008F8000080808000203F24022D30200043
:104BF000000808F8000000000020203F20200000EE
:104C00008080808080808000203F20003F20003F07
:104C10008080008080800000203F210000203F2015
:104C20000000808080800000001F202020201F00C6
:104C3000808000808000000080FFA12020110E00F5
:104C40000000008080808000000E112020A0FF80E6
:104C5000808080008080800020203F212000010093
:104C600000008080808080000033242424241900E8
:104C7000008080E0808000000000001F20200000F5
:104C80008080000000808000001F202020103F2036
:104C9000808080000080808000010E3008060100C6
:104CA00080800080008080800F300C030C300F006B
:104CB00000808000808080000020312E0E31200096
:104CC000808080000080808080818E7018060100C6
:104CD00000808080808080000021302C22213000E4
:104CE00000000000807C020200000000003F404005
:104CF00000000000FF00000000000000FF000000B6
:104D00000002027C800000000040403F00000000E4
:104D1000000601010202040400000000000000007F
:104D20000000000000000000002F0000000007004D
:104D3000070000147F147F1400242A7F2A120062C7
:104D40006408132300364955225000000503000073
:104D500000001C224100000041221C000014083EFB
:104D600008140008083E0808000000A060000008C1
:104D70000808080800006060000000201008040215
:104D8000003E5149453E0000427F400000426151D3
:104D90004946002141454B31001814127F1000276D
:104DA00045454539003C4A49493000017109050330
:104DB00000364949493600064949291E0000363661
:104DC00000000000563600000008142241000014C4
:104DD00014141414000041221408000201510906A1
:104DE00000324959513E007C1211127C007F494922
:104DF0004936003E41414122007F4141221C007F53
:104E000049494941007F09090901003E4149497A60
:104E1000007F0808087F0000417F410000204041DA
:104E20003F01007F08142241007F40404040007F46
:104E3000020C027F007F0408107F003E4141413E8A
:104E4000007F09090906003E4151215E007F0919D2
:104E500029460046494949310001017F0101003FCF
:104E60004040403F001F2040201F003F4038403F4F
:104E700000631408146300070870080700615149B3
:104E8000454300007F41410000552A552A55000046
:104E900041417F00000402010204004040404040C4
:104EA000000001020400002054545478007F48445C
:104EB000443800384444442000384444487F003893
:104EC0005454541800087E0901020018A4A4A47CBC
:104ED000007F080404780000447D40000040808486
:104EE0007D00007F102844000000417F4000007CCE
:104EF00004180478007C08040478003844444438DA
:104F000000FC242424180018242418FC007C080425
:104F1000040800485454542000043F444020003CFE
:104F20004040207C001C2040201C003C4030403C85
:104F3000004428102844001CA0A0A07C0044645415
:104F40004C44141414141414000000000000000059
:104F50000000000000000000000000000000000051
:104F60000000000000000000000000000000000041
:104F70000000000000000000000000000000F0F051
:104F8000F000000000000000000000000000017FB1
:104F900001000000000000000000000000001C1CD8
:104FA0001C1C00000000000000008060303C1C8CD5
:104FB00060303C1C0C0000000000000000000000FD
:104FC00000000000000000000000000000000000E1
:104FD00000000000000000000000000000E00000F1
:104FE00000000000E000000000868686FE878686BE
:104FF000868686FE878686000001011F0101010169
:1050000001011F010101010000000080C0402020BB
:10501000F8202060C0C0000000000003070C0C183E
:10502000FF3060E1C18100000000070F0B1010107D
:105030007F1010080F07000080C0602020C0800093
:10504000000080C0200000000F1F3020301F8F6044
:10505000D8E6331030E0C000000000100C0301005F
:10506000070F1810180F0700000080C0602020E014
:10507000C00000000000000080E0271F78E8C4079F
:105080000304C43C04040000070F18101010110B97
:10509000070F181010100C0000808C4C7C3800009A
:1050A0000000000000000000000000000000000000
:1050B00000000000000000000000000000000000F0
:1050C00000000000000000000000000000000000E0
:1050D00000C0603018080400000000000000007CE0
:1050E000FF010000000000000000000000000000C0
:1050F00003070C1830204000000408183060C0007E
:10510000000000000000000000000000000001FF9F
:105110007C0000000000000000402030180C070355
:10512000000000000000000000000000000000C0BF
:10513000C0C000000000000000004266662428187D
:10514000FF182424666642000000000000000003EF
:105150000303000000000000000000000000000049
:10516000800000000000000000001010101010105F
:10517000FF101010101010000000000000000000D0
:10518000030000000000000000000000000000001C
:10519000000000000000000000000000000000000F
:1051A000000000000000000000808C4C7C380000F3
:1051B00000000000000000000000000000000000EF
:1051C000000000000000000000101010101010106F
:1051D000101010101010100000000000000000005F
:1051E00000000000000000000000000000000000BF
:1051F00000000000000000000000000000000000AF
:10520000000000000000000000001C1C1C18000032
:10521000000000000000000000000000000000008E
:10522000000000C030180400000000000080C03002
:1052300018060300000000000040301806010000BE
:10524000000000000000000000000000C0C060205E
:1052500020202040C00000000000FCFF03000000F0
:105260000000000001FFFE0000000003060C181003
:10527000101018080E03000000000080808080C01D
:10528000E00000000000000000000000000000FF3F
:10529000FF00000000000000000000101010101FB0
:1052A0001F1010101000000000008040402020203F
:1052B000202060C0C08000000000030200000080C9
:1052C000402030180F0700000000181C1A19191888
:1052D000181818181C070000000080C0402020206B
:1052E000206040C080000000000003030000101098
:1052F00010182867C38000000000070F101010105E
:105300001010180C0703000000000000000000004F
:10531000C0E0F0F0000000000080C0B098848281FE
:1053200080FFFFFF80808000000000000000101060
:10533000101F1F1F1010100000000000E0606060D0
:1053400060606060606000000000003E231008089C
:1053500008081830F0C000000000070B10101010F3
:105360001010180C0F0300000000000080C0402047
:1053700020202020E0C000000000FCFF21101808C1
:105380000808081830F0C000000001070E081810C7
:10539000101010180C070300000080E060606060CF
:1053A000606060E06020000000000300000000C0BA
:1053B000300C0201000000000000000000001E1F71
:1053C0000000000000000000000080C040202020FD
:1053D00020202040C08000000080C3672C181810D7
:1053E000303070E8C783000000070F0C1810101051
:1053F000101018080F070000000080C06020202057
:10540000202040C080000000001F3F30604040402E
:1054100040602010FFFE000000000C1C1010101057
:1054200018080C0703000000000000000000000046
:1054300000000000000000000000000000000E0E50
:105440000E0E0000000000000000000000001C1C08
:105450001C1C0000000000000000C1C081C1400110
:1054600001C3C003800241C201C6C006800741C714
:105470000005C1C581C4400401CCC00C800D41CDE4
:10548000000FC1CF81CE400E000AC1CA81CB400BB4
:1054900001C9C009800841C801D8C018801941D984
:1054A000001BC1DB81DA401A001EC1DE81DF401F14
:1054B00001DDC01D801C41DC0014C1D481D5401524
:1054C00001D7C017801641D601D2C012801341D334
:1054D0000011C1D181D0401001F0C030803141F1C4
:1054E0000033C1F381F240320036C1F681F7403714
:1054F00001F5C035803441F4003CC1FC81FD403DE4
:1055000001FFC03F803E41FE01FAC03A803B41FBB3
:105510000039C1F981F840380028C1E881E9402903
:1055200001EBC02B802A41EA01EEC02E802F41EF13
:10553000002DC1ED81EC402C01E4C024802541E523
:105540000027C1E781E640260022C1E281E3402333
:1055500001E1C021802041E001A0C060806141A143
:105560000063C1A381A240620066C1A681A7406713
:1055700001A5C065806441A4006CC1AC81AD406DE3
:1055800001AFC06F806E41AE01AAC06A806B41ABB3
:105590000069C1A981A840680078C1B881B9407983
:1055A00001BBC07B807A41BA01BEC07E807F41BF13
:1055B000007DC1BD81BC407C01B4C074807541B523
:1055C0000077C1B781B640760072C1B281B3407333
:1055D00001B1C071807041B00050C19081914051C3
:1055E0000193C053805241920196C0568057419713
:1055F0000055C19581944054019CC05C805D419DE3
:10560000005FC19F819E405E005AC19A819B405BB2
:105610000199C059805841980188C0488049418902
:10562000004BC18B818A404A004EC18E818F404F12
:10563000018DC04D804C418C0044C1848185404522
:105640000187C047804641860182C0428043418332
:105650000041C18181804040C8D7B6A590010000BB
:10566000000000000000000000000000000000003A
:10567000C8D7B6A5900000000000000000000000A0
:105680000000000000000000C8D7B6A5900200008E
:10569000000000000000000000000000000000000A
:1056A000C8D7B6A5D001000000000000000000002F
:1056B0000000000000000000C8D7B6A5D000000020
:1056C00000000000000000000000000000000000DA
:1056D000C8D7B6A5D00200000000000000000000FE
:1056E0000000000000000000C8D7B6A5910000002F
:1056F00000000000000000000000000000000000AA
:10570000C8D7B6A57001000000000000000000002E
:105710000000000000000000C8D7B6A5A2020000EB
:105720000000000000000000000000000000000079
:10573000100C19070F0837000400000800000000D3
:105740000000000200010000100000006C5700087B
:105750000000002060060000C4010008E0590008B5
:105760006006002040070000280200081200010324
:105770001E0100017122000D113E22E2223E0010A6
:10578000885724548C28000F10407E403F2222006E
:1057900001FE424242FE015810072424A4FE2322A7
:1057A00046210102103E40100C080601FF01064090
:1057B0004949497F04021141622008800000E0024B
:1057C00004186C021080802008100C0300003F4079
:1057D000010005107800010EA1000E1114A444244C
:1057E00034AD6624940444A41480100B09080809FD
:1057F0000909FD09090B09021108802008F80808A9
:10580000F80C0B080705120033407F035107011104
:10581000401004FE02820122FA0503108202DE33E8
:10582000601FBD113F031144584031DA300440FF7E
:1058300044010113602164000812FF000002040803
:10584000101B053DC011C012920141050513003126
:105850009B02167FA050051060028C44011340107B
:105860000A04047E01407E42427E020315427E40CD
:10587000413F011740240444485085040412504815
:1058800044802009FC242424FC2526240806100436
:1058900060080E11308F80844C55252525554C808D
:1058A000806111BD35BB0404168282FE7D45A407CC
:1058B0001340FF9B1304FF801C05FF0400FE000340
:1058C000051141040F1488482F090919AF48300FFA
:1058D0000242827FDE13C038B8040413601807FB4D
:1058E0002008FC848484FC0010010B11FF100212BC
:1058F0003F191E3FD0030004130640805F080E14BA
:10590000F8010600F0121212F2020202FE5B000819
:1059100013001F1111111F004119BB7A7CA109113D
:10592000C0080D10809088464040202F10100804B9
:10593000FE10060000905234B81C06345280708F5E
:1059400068030D1080030C0E11829A566322528E4A
:10595000008040330C33010424058060F8075C0F9D
:10596000143E0060043D1C03000A10FF0909894031
:105970002F11294740580840422410FF0084C309D2
:105980001020081010222212120AFE42270A1222A8
:10599000324A4242C164040202F23E15420D1282B2
:1059A000030406140F0404040F3E39A02DBC031D8C
:1059B000DF040116201C073F1008844020E8040C77
:1059C0000511081020C080033F42CC2504498609F8
:1059D000123F54047F2010C8065000C0011001007F
:040000050800018965
:00000001FF
